:020000040800F2
:10000000701C002095180008090200080B02000867
:100010000F02000813020008170200080000000089
:100020000000000000000000000000001B020008AB
:100030001D020008000000001F0200082102000845
:10004000AF180008AF180008AF180008AF18000874
:10005000AF180008AF180008AF180008AF18000864
:10006000AF180008AF180008AF180008AF18000854
:10007000AF180008AF180008AF180008AF18000844
:10008000AF180008AF180008AF180008AF18000834
:10009000AF180008AF180008AF180008AF18000824
:1000A000AF180008AF180008AF180008AF18000814
:1000B000AF180008AF180008AF180008AF18000804
:1000C000AF180008AF180008AF180008AF180008F4
:1000D000AF18000857050008AF180008AF1800084F
:1000E000AF180008AF180008AF180008DFF80CD0F0
:1000F00002F040F90048004739010008701C002058
:10010000EFF30980704780F309887047EFF30880A8
:10011000704780F30888704740BA7047C0BA70478C
:1001200070B504460D462946204600F0A7FA294638
:100130002AA002F0BFF970BDADF5FB6D01F0BCFB6C
:1001400001F0C6FE01F0FCFC002001F087FC4FF43A
:10015000165000F07FF94FF6FF7001F0EDFD4FF003
:1001600033321F4B1FA102A802F0B4F94FF6FF7003
:10017000002302AA282100901E2001F089FE0024FD
:1001800001224FF4FA6102A801F0DCFE00F05CFAF3
:1001900023E002A800F0FFF904461748006858B1B0
:1001A00000F09AFA15A002F085F9002012490860C3
:1001B000144800F03DFA0DE0002C0ADD214602A8AB
:1001C000FFF7AEFF01224FF4FA6102A801F0BAFE78
:1001D00000E000BF322001F0ACFBDAE7256420002C
:1001E0003333F33F74686520566F6C746167652024
:1001F0003A25302E3166760000000020656E640DD1
:100200000A00000000000108704700BFFEE700BFC1
:10021000FEE700BFFEE700BFFEE77047704770478C
:10022000704700000CB50020019000906C480068F9
:1002300040F480306A49086000BF6948006800F4F3
:10024000003000900198401C0190009818B9019866
:10025000B0F5A06FF1D16248006800F4003010B131
:100260000120009001E0002000900098012843D177
:100270005C48006840F010005A4908600846006871
:1002800020F0030008600846006840F002000860A3
:1002900053484068524948600846406848600846EC
:1002A000406840F4806048600846406820F47C1054
:1002B00048600846406840F4E81048600846006816
:1002C00040F08070086000BF4548006800F0007092
:1002D0000028F9D04248406820F0030040494860B7
:1002E0000846406840F00200486000BF3C48406853
:1002F00000F00C000828F9D10CBD10B5FFF792FFF3
:1003000010BD10B53648006840F00100344908605F
:10031000084640683449084031494860084600684A
:10032000324908402E4908600846006820F48020C1
:1003300008600846406820F4FE0048604FF41F0043
:100340008860FFF7DAFF4FF000602949086010BDB0
:1003500010B5002100200022214B5B6803F00C0146
:1003600021B1042906D0082928D107E0214B224CCD
:10037000236027E01F4B204C236023E0184B5B6871
:1003800003F47010164B5B6803F48032022303EB16
:10039000904022B9194B4343174C23600DE0104B9A
:1003A0005B6803F4003323B1144B4343124C2360C6
:1003B00003E0104B4343104C236003E00D4B0E4C05
:1003C000236000BF00BF064B5B68C3F303130C4CF4
:1003D000E15C094B1B68CB40074C236010BD00005B
:1003E00000100240002002400000FFF8FFFFF6FE70
:1003F00008ED00E000127A000400002000093D0032
:100400000800002070B504460D4600BF4021834817
:1004100000F008FF0028F9D0E1B2804800F094FE17
:10042000204670BD70B50546284601F09DFD064684
:10043000002400BF0BE000BF4021784800F0F2FE2E
:100440000028F9D0295D754800F07EFE641CB44296
:10045000F1DB70BD10B586B00446012144F2040002
:1004600000F0D2FC6D4800F033FD4FF40070ADF8A1
:10047000140003208DF8160018208DF8170005A928
:10048000674800F005FA4FF48060ADF814000420CE
:100490008DF8170005A9624800F0FAF901940020D0
:1004A000ADF80800ADF80A00ADF80C00ADF810008A
:1004B0000C20ADF80E0001A9584800F04CFD252095
:1004C0008DF8000003208DF801008DF80200012056
:1004D0008DF80300684600F012F9012240F2255120
:1004E0004E4800F0D0FD01214C4800F0C0FD06B0A0
:1004F00010BD10B540F604014A4801F02AFD002065
:100500004849103908604860886010BD10B504463D
:100510004448103841684068401C424A103A5060D4
:10052000404844541038406840F60301884202D1E4
:100530000020114648603B4810380068401C39498B
:10054000103908600846006840F60301884201D16E
:10055000FFF7CFFF10BD10B540F225512F4800F036
:1005600077FEB8B12D48001D0088C4B22E4800782F
:1005700040B1AA2C03D101202C49086002E00020E0
:1005800029490870552C02D10120274908702046BE
:10059000FFF7BCFF10BD70B5064600242148103897
:1005A000056822480068012801D1002070BD284656
:1005B00005EBD0714910A5EB410109B10020F5E729
:1005C00040F60402174901F6040001F0A9FC0024DA
:1005D00015E01448103881688068401C114A103AB0
:1005E000906002F61400405C30551046806840F67A
:1005F0000301884202D1002011468860641CAC428D
:10060000E7DB08481038C068204406491039C86044
:1006100008460068001B08602046C7E70038014014
:100620000008014064040020200000200000002099
:1006300010B5044660682A4908602068FFF769FD24
:1006400027480068804710BD70B500F064FE402563
:10065000342001F0FBF8002409E022494FF4006245
:1006600002FB041000F09CFE1F490870641CAC42A1
:1006700003D81D4800780428EFD070BD2DE9F04163
:1006800006460C46204604EBD0714910A4EB41010C
:10069000641A002513E0715D681C305C41EA002794
:1006A00039461248006800F07EFF0F4908700F4875
:1006B0000068801C0D490860A81C85B200BF0B486B
:1006C00000680B49884205D207480078042801D108
:1006D000A542E0DBBDE8F08110B500F02FFE10BDB3
:1006E00024000020000001082C0000203000002021
:1006F0000000030831490143314A1160704770B569
:10070000002100230F22C47804B32D4C246804F484
:10071000E064C4F5E064210AC1F10403CA404478EE
:1007200004FA03F18478144021430901254C06782A
:10073000A155047804F01F050124AC4005786D1123
:10074000AD0005F1E025C5F8004109E0047804F0AA
:100750001F050124AC401C4D0678761145F8264053
:1007600070BD1A4A0A400243154B1B1F1A6070479E
:1007700039B1134A121D12680243114B1B1D1A6036
:1007800006E00F4A121D126882430D4B1B1D1A60B2
:100790007047042808D14FF0E021096941F00401B5
:1007A0004FF0E022116107E04FF0E021096921F0EC
:1007B00004014FF0E0221161704700000000FA05CB
:1007C0000CED00E000E400E080E100E080FFFF1FAE
:1007D00010B50446CC48844208D10121042000F021
:1007E0002DFB0021042000F029FB46E0C74884428D
:1007F00008D10121082000F021FB0021082000F091
:100800001DFB3AE0C248844208D10121102000F0CB
:1008100015FB0021102000F011FB2EE0BD488442A2
:1008200008D10121202000F009FB0021202000F048
:1008300005FB22E0B848844208D10121402000F0A5
:10084000FDFA0021402000F0F9FA16E0B348844296
:1008500008D10121802000F0F1FA0021802000F071
:10086000EDFA0AE0AE48844207D10121801500F07C
:10087000E5FA0021A01500F0E1FA10BD10B5012144
:10088000084600F0DBFA0021012000F0D7FA10BD85
:100890002DE9F04102460025002600200023002417
:1008A000002791F803C00CF00F0591F803C00CF07D
:1008B000100CBCF1000F03D091F802C04CEA050502
:1008C00091F800C0BCF1000F31D0146800202BE07B
:1008D0004FF0010C0CFA00F3B1F800C00CEA03066B
:1008E0009E4220D183004FF00F0C0CFA03F7BC435B
:1008F00005FA03FC4CEA040491F803C0BCF1280F8C
:1009000006D14FF0010C0CFA00FCC2F814C00AE04A
:1009100091F803C0BCF1480F05D14FF0010C0CFA5F
:1009200000FCC2F810C0401C0828D1D31460B1F8F4
:1009300000C0BCF1FF0F34DD546800202EE000F150
:10094000080C4FF0010808FA0CF3B1F800C00CEAEB
:1009500003069E4221D183004FF00F0C0CFA03F7DF
:10096000BC4305FA03FC4CEA040491F803C0BCF153
:10097000280F05D100F1080C08FA0CF8C2F8148011
:1009800091F803C0BCF1480F07D100F1080C4FF0FB
:10099000010808FA0CF8C2F81080401C0828CED3D1
:1009A0005460BDE8F0814FF6FF7101800221817033
:1009B0000421C17070470246002093680B400BB1C0
:1009C000012000E0002070470146886880B270472F
:1009D00002460020D3680B400BB1012000E000204C
:1009E00070470146C86880B2704701617047416135
:1009F00070470AB1016100E041617047C160704712
:100A00004FF480320A438261816182618269826926
:100A1000704702460020434B18684FF68073184019
:100A200040EA021008433F4B186070473E49C861D6
:100A30007047F0B50A46002300240021002500F08D
:100A40000046B6F1004F02D1364EF16901E0354E55
:100A50007168C0F3034583B200F44016B6F5401F39
:100A600008D121F070612F4E766826F070662D4F08
:100A70007E6012E000F48016B6F5801F06D10326D2
:100A800006FA05F4A14341F0706106E0460D360117
:100A900003FA06F6B14341F0706122B1460D36010A
:100AA00003FA06F6314300F00046B6F1004F02D1DA
:100AB0001C4EF16101E01B4E7160F0BD30B50022AB
:100AC0008B071C0F0F2303FA04F2164B08338C100C
:100AD00053F824309343134C08348D1044F82530D8
:100AE00023468C1053F824308C07240F00FA04F4AA
:100AF00023430C4C08348D1044F8253030BD0A498E
:100B0000DC3108607047000000080140000C014023
:100B1000001001400014014000180140001C014079
:100B2000002001400000014000002042DF48006832
:100B300040F00100DD49086008464068DC49084093
:100B4000DA49486008460068DA490840D749086031
:100B50000846006820F4802008600846406820F4B9
:100B6000FE0048604FF41F0088607047CF49096855
:100B700021F48031CD4A11601146096821F48021A9
:100B80001160B0F5803F03D0B0F5802F0ED106E0A4
:100B9000C649096841F48031C44A116007E0C3497D
:100BA000096841F4A021C14A116000E000BF00BF04
:100BB000704710B501460022002300204A11012A87
:100BC00002D1BA4C236806E0022A02D1B74C236A4C
:100BD00001E0B64C636A01F01F02012494401C40FE
:100BE0000CB1012000E0002010BD38B500200090BD
:100BF0000024002500BF3120FFF7DBFF05460098E9
:100C0000401C00900098B0F5A06F01D0002DF2D0EC
:100C10003120FFF7CEFF08B1012400E00024204678
:100C200038BD01460020A14A106820F0F80040EAD3
:100C3000C10010607047A04908607047024600205C
:100C40009A4B586820F47C1042EA01031843974BF2
:100C50005860704798490866704701460020934ADB
:100C6000506820F003000843506070478F48406888
:100C700000F00C007047014600208C4A506820F0BC
:100C8000F00008435060704701460020874A5068D2
:100C900020F4E06008435060704701460020834A1A
:100CA000506820F4605040EAC1005060704729B19C
:100CB0007E4A527A02437D4B5A7204E07B4A527A52
:100CC00082437A4B5A7270477B49D831086070472B
:100CD00001460020754A506820F4404008435060A7
:100CE00070470021714A20321170704A82F820103A
:100CF000012802D004280AD104E001216B4A2032E5
:100D0000117005E00521694A2032117000E000BF32
:100D100000BF70476949086070476449096A014328
:100D2000624A11627047654944390860704730B5BE
:100D300000210022002400235C4D6D6805F00C01A9
:100D400021B1042905D0082923D105E05C4D0560B7
:100D500022E05B4D05601FE0544D6D6805F4701294
:100D6000524D6D6805F48034022505EB92421CB9A2
:100D7000544D554305600BE04C4D6D6805F400354E
:100D80001DB1504D5543056002E04D4D5543056082
:100D900002E04B4D056000BF00BF444D6D6805F09B
:100DA000F0010909484D6B5C0568DD4045603F4D29
:100DB0006D6805F4E061090A434D6B5C4568DD40F0
:100DC00085603A4D6D6805F46051C90A3E4D6B5C13
:100DD0004568DD40C560354D6D6805F44041890BBF
:100DE0003A4D6B5CC568B5FBF3F5056130BD29B1C3
:100DF0002E4A526902432D4B5A6104E02B4A526934
:100E000082432A4B5A61704729B1284A92690243AA
:100E1000264B9A6104E0254A92698243234B9A61EA
:100E2000704729B1214AD2690243204BDA6104E0BC
:100E30001E4AD26982431D4BDA61704729B11B4AB1
:100E4000D2680243194BDA6004E0184AD268824340
:100E5000164BDA60704729B1144A12690243134BEA
:100E60001A6104E0114A12698243104B1A617047FB
:100E700012494039086070470F49C86470470B49F0
:100E8000C87170470948406A40F08070074948625D
:100E9000704701460020054A92680A400AB10120C5
:100EA00000E000207047014988727047001002403E
:100EB0000000FFF8FFFFF6FE0000424280044242BD
:100EC00000127A0000093D00340000204400002098
:100ED00010B50446FB48844209D101218803FFF77D
:100EE000ADFF00214FF48040FFF7A8FF32E0F64845
:100EF000844209D101214804FFF7ADFF00214FF4DE
:100F00000030FFF7A8FF25E0F048844209D1012115
:100F10008804FFF7A0FF00214FF48020FFF79BFF1C
:100F200018E0EB48844209D10121C804FFF793FF80
:100F300000214FF40020FFF78EFF0BE0E5488442CC
:100F400008D101210805FFF786FF00214FF480102A
:100F5000FFF781FF10BD2DE9F04786B005460E462C
:100F60000024A24600BFA1460027B08900B100BFFF
:100F70002F462C8A4CF6FF700440F08804432C82E4
:100F8000AC894EF6F3100440B0883189084371896A
:100F900008430443AC81AC8A4FF6FF400440B0895B
:100FA0000443AC8201A8FFF7C2FEC648874202D1C3
:100FB000DDF810A001E0DDF80CA0A88900F40040E5
:100FC00040B10AEBCA0000EB0A1031684900B0FBDF
:100FD000F1F807E00AEBCA0000EB0A10316889005B
:100FE000B0FBF1F86420B8FBF0F0040120096421A3
:100FF00001FB1089A88900F4004040B1322000EBC9
:10100000C900B0FBF1F000F00700044308E0322013
:1010100000EB09106421B0FBF1F000F00F00044375
:101020002C8106B0BDE8F0874FF416510160002115
:101030008180C18001810C21418100218181704723
:1010400010B502460020108A4FF2FF0318400B88AB
:101050004C8823438C882343CC8823431843108235
:1010600010BD0021018041808180C180704721B185
:10107000828942F40052828104E082894DF6FF7336
:101080001A4082817047F0B50346002400260025EF
:10109000002040F66A17B94200D100BF1846C1F3DC
:1010A000421401F01F06012707FA06F5012C01D1B1
:1010B0000C3004E0022C01D1103000E014301AB1E1
:1010C00007682F43076002E00768AF430760F0BD81
:1010D0001AB1838A0B43838202E0838A8B43838223
:1010E0007047028A4FF6F0731A400282028A0A435E
:1010F0000282704782894FF2FF731A40828182898F
:101100000A438281704721B1828942F002028281C2
:1011100004E082894FF6FD731A4082817047028A8B
:101120004FF6DF731A400282028A0A430282704736
:1011300021B1028A42F48042028204E0028A4BF624
:10114000FF731A4002827047C1F308028280704721
:1011500001468888C0F308007047818941F0010189
:1011600081817047028BD2B20283028B42EA012254
:1011700002837047028B02F47F420283028B0A4390
:101180000283704721B1828A42F02002828204E009
:10119000828A4FF6DF731A408282704721B1828AB9
:1011A00042F01002828204E0828A4FF6EF731A4006
:1011B0008282704721B1828A42F00802828204E072
:1011C000828A4FF6F7731A408282704721B1828972
:1011D00042F40042828103E08289C2F30E028281DE
:1011E000704721B1828A42F40062828204E0828ADE
:1011F0004FF2FF731A4082827047828A4FF6FB7368
:101200001A408282828A0A438282704721B1828A8E
:1012100042F00202828204E0828A4FF6FD731A4095
:101220008282704702460020B1F5007F00D100BFE6
:1012300013880B400BB1012000E00020704701F43F
:101240000072B2F5007F00D100BFCA430280704730
:1012500070B50246002400230025002040F66A16DF
:10126000B14200D100BFC1F3421501F01F030126B6
:1012700006FA03F3012D02D19689334006E0022DD0
:1012800002D1168A334001E0968A33400C120126BF
:1012900006FA04F41688344013B10CB1012000E0C2
:1012A000002070BD10B50022002340F66A14A14250
:1012B00000D100BF0A1201249440A3B2DC43048091
:1012C00010BD0000003801400044004000480040CC
:1012D000004C00400050004001460020FE4A1068CB
:1012E00000F03800084310607047FB49096821F09E
:1012F0000801F94A116011460968014311607047FD
:10130000F549096821F01001F34A11601146096896
:10131000014311607047F148EF494860F048486068
:101320007047EE48EC494860ED4848607047EA482D
:10133000006940F08000E84908617047E6480069AC
:1013400040F08000E449086170470420E249C96820
:1013500001F0010109B101200EE0DF49C96801F087
:10136000040109B1022007E0DB49C96801F010015E
:1013700009B1032000E00420704700B502460423B1
:10138000FFF7E3FF034603E0FFF7DFFF0346521ECC
:10139000012B01D1002AF7D102B90523184600BD5F
:1013A00030B5044604254FF43020FFF7E6FF05462C
:1013B000042D17D1C848006940F00200C6490861F1
:1013C00008464461006940F0400008614FF4302055
:1013D000FFF7D3FF0546C048006941F6FD7108409C
:1013E000BD490861284630BD10B504244FF43020B3
:1013F000FFF7C3FF0446042C16D1B748006940F03C
:101400000400B54908610846006940F040000861E1
:101410004FF43020FFF7B1FF0446AF48006941F6B2
:10142000FB710840AC490861204610BD00B502467A
:101430000423FFF78AFF034603E0FFF786FF034616
:10144000521E012B01D1002AF7D102B905231846FB
:1014500000BD10B504244FF43020FFF7E7FF044629
:10146000042C16D19C48006940F004009A49086198
:101470000846006940F0400008614FF43020FFF753
:10148000D5FF04469448006941F6FB710840924933
:101490000861204610BD00208F49C96901F0020192
:1014A00009B1012000E00020704730B5A5250424D3
:1014B000FFF7F1FF00B100254FF43020FFF75DFF8B
:1014C0000446042C3AD18548834988608448886062
:1014D0000846006940F0200008610846006940F0B5
:1014E000400008614FF43020FFF747FF0446042C0A
:1014F0001BD17948006941F6DF71084076490861DF
:101500000846006940F01000086176480580E00256
:10151000FFF733FF0446052C10D06F48006941F6F1
:10152000EF7108406C49086108E0052C06D06A4854
:10153000006941F6EF71084067490861204630BDF7
:1015400078B506460C46042500200090E802FFF717
:1015500014FF0546042D24D15F48006940F00100C6
:101560005D4908613480E802FFF707FF0546042D56
:1015700010D1B01C0090200C00990880E802FFF701
:10158000FCFE05465448006941F6FE710840524988
:10159000086106E05048006941F6FE7108404E4976
:1015A0000861284678BD70B504460D460426F00251
:1015B000FFF7E3FE0646042E11D14748006940F0CC
:1015C0000100454908612580F002FFF7D6FE064676
:1015D0004148006941F6FE7108403F4908613046C4
:1015E00070BD70B505460E460424E002FFF7C5FE47
:1015F0000446042C17D13948374988603848886038
:101600000846006940F0100008612E80E002FFF7F4
:10161000B4FE0446052C06D02F48006941F6EF7150
:1016200008402D490861204670BD2DE9F04304466D
:101630004FF6FF763746B046B1460425E443E6B29E
:10164000C4F30727C4F307484FEA1469E802FFF719
:1016500094FE0546042D49D120481F498860204842
:1016600088600846006940F010000861FF2E06D02F
:101670001C4808300680E802FFF77FFE0546042D6F
:1016800008D1FF2F06D017480A300780E802FFF77D
:1016900074FE0546042D0AD1B8F1FF0F07D011489A
:1016A0000C30A0F80080E802FFF767FE0546042D25
:1016B0000AD1B9F1FF0F07D00A480E30A0F8009008
:1016C000E802FFF75AFE0546052D0FD002480069D3
:1016D00041F6EF71084007E0002002402301674512
:1016E000AB89EFCD00F8FF1F664908612846BDE8C9
:1016F000F08330B5054604244FF43020FFF73DFE5B
:101700000446042C41D160485E4988605F48886087
:101710000846006940F0200008610846006940F072
:10172000400008614FF43020FFF727FE0446042CE8
:1017300022D15448006941F6DF71084051490861DF
:101740000846006940F0100008611DB100205049B2
:10175000088002E0A5204E4908804FF43020FFF7B2
:101760000CFE0446052C10D04648006941F6EF7186
:1017700008404449086108E0052C06D0414800694A
:1017800041F6DF7108403F490861204630BDF0B5A1
:1017900005460E46174604243B483A4988603B48B4
:1017A0008860E002FFF7E9FD0446042C19D13548B2
:1017B000006940F010003349086147F0F8003043F9
:1017C00028433349891C0880E002FFF7D6FD044610
:1017D000052C06D02B48006941F6EF7108402949D5
:1017E00008612046F0BD2748C06980087047254839
:1017F000006A704700202349096801F0200109B1FF
:10180000012000E00020704729B11E4A12690243FE
:101810001C4B1A6104E01B4A12698243194B1A617E
:10182000704701460020012908D1164AD26902F00A
:1018300001020AB1012008E0002006E0114AD26846
:101840000A400AB1012000E0002070470D49C8603D
:10185000704704200B49C96801F0010109B101205A
:101860000EE00849C96801F0040109B1022007E04F
:101870000449C96801F0100109B1032000E0042007
:10188000704700000020024023016745AB89EFCD7F
:1018900000F8FF1F0648804706480047FEE7FEE7BE
:1018A000FEE7FEE7FEE7FEE7FEE7FEE7FEE7FEE710
:1018B00003030008ED00000810B56FF00400FEF708
:1018C00068FF2E4800682E49B0FBF1F02D490870E2
:1018D0000846007800EB4001C1EBC0104FF6FF71E5
:1018E00001EAC0002849088010BD0146254A127847
:1018F0004A434FF0E0235A6100229A611A46126966
:1019000042F001021A6100BF4FF0E022106900F0BE
:1019100001021AB100F48032002AF5D04FF0E02223
:10192000126922F001024FF0E0231A6100229A614D
:1019300070470146144A12884A434FF0E0235A6127
:1019400000229A611A46126942F001021A6100BF30
:101950004FF0E022106900F001021AB100F4803269
:10196000002AF5D04FF0E022126922F001024FF078
:10197000E0231A6100229A617047000004000020F1
:1019800000127A00480000204A00002008B501211A
:101990000846FFF739FA0121FE48FFF74AF801210E
:1019A0001C20FFF731FA4FF6FF70ADF80000102051
:1019B0008DF8030003208DF802006946F648FEF713
:1019C00067FF4FF6FF71F448FFF70FF84FF4E06040
:1019D000ADF800006946F148FEF75AFF4FF40040A9
:1019E000ADF800006946EE48FEF752FF08BD012839
:1019F00006D1EA49096941F40071E84A116106E03B
:101A000028B9E649496941F40071E44A51617047D7
:101A1000012806D1E149096941F48061DF4A116179
:101A200006E028B9DD49496941F48061DB4A51612A
:101A30007047012808D1DA491031096841F40041A2
:101A4000D74A1032116008E038B9D5491431096815
:101A500041F40041D24A143211607047012806D186
:101A6000CE49096941F48071CC4A116106E028B978
:101A7000CA49496941F48071C84A516170474FF6BB
:101A8000FF71C54A14321160111F0860704700B51C
:101A900003460020FFF7ABFF1846FFF7F0FF0020DA
:101AA000FFF7B6FF0120FFF7B3FF00BD00B5034607
:101AB0000120FFF79CFF1846FFF7E1FF0020FFF72A
:101AC000A7FF0120FFF7A4FF00BD30B505460C4677
:101AD0002846FFF7DCFF2046FFF7E8FF30BD2DE981
:101AE000F04307460C4615461E46DDE9078950209F
:101AF000FFF7CDFF3846FFF7D9FF5120FFF7C7FFAB
:101B00002846FFF7D3FF5220FFF7C1FF2046FFF71B
:101B1000CDFF5320FFF7BBFF3046FFF7C7FF202064
:101B2000FFF7B5FF4046FFF7C1FF2120FFF7AFFFEA
:101B30004846FFF7BBFF2220FFF7A9FFBDE8F0836F
:101B400010B5FFF723FF0120FFF788FF0120FFF703
:101B500070FF0120FFF75CFF0520FFF7EAFE002081
:101B6000FFF77CFF4FF480710120FFF7AEFF4FF4C9
:101B7000E0610220FFF7A9FF41F230010320FFF7E7
:101B8000A4FF00210420FFF7A0FF40F2022108205B
:101B9000FFF79BFF00210920FFF797FF00210A2094
:101BA000FFF793FF00210C20FFF78FFF00210D208E
:101BB000FFF78BFF00210F20FFF787FF0021102088
:101BC000FFF783FF07211120FFF77FFF002112207D
:101BD000FFF77BFF00211320FFF777FF012107208C
:101BE000FFF773FF3220FFF7A4FE41F2906110204F
:101BF000FFF76BFF40F227211120FFF766FF32202D
:101C0000FFF797FE9D211220FFF75FFF3220FFF7BD
:101C100090FE4FF4C8511320FFF757FF3220FFF713
:101C200088FE25212920FFF750FF0D212B20FFF7EB
:101C30004CFF3220FFF77DFE00212020FFF745FFFB
:101C400000212120FFF741FF3220FFF772FE07211C
:101C50003020FFF73AFF40F203313120FFF735FF24
:101C600003213220FFF731FF40F206213520FFF734
:101C70002CFF08213620FFF728FF40F206413720CD
:101C8000FFF723FF4FF441713820FFF71EFF0721B4
:101C90003920FFF71AFF40F201613C20FFF715FFE2
:101CA00008213D20FFF711FF00215020FFF70DFF15
:101CB000EF215120FFF709FF00215220FFF705FF18
:101CC00040F23F115320FFF700FF4FF427416020FF
:101CD000FFF7FBFE01216120FFF7F7FE00216A20DC
:101CE000FFF7F3FE00218020FFF7EFFE00218120A7
:101CF000FFF7EBFE00218220FFF7E7FE00218320A3
:101D0000FFF7E3FE00218420FFF7DFFE002185209E
:101D1000FFF7DBFE10219020FFF7D7FE4FF4C061E4
:101D20009220FFF7D2FE40F233110720FFF7CDFEDD
:101D30002220FFF7ACFE10BD7CB5064600200090C7
:101D400040F23F13EF2201460190FFF7C8FE002446
:101D50000AE0002504E03046FFF7A8FE681CC5B283
:101D6000F02DF8DB601C84B2B4F5A07FF1DB7CBD04
:101D70002DE9FF4F82B004460D469246DDF83CB097
:101D8000DFF82080AAF1200008EB0018BBF1010F5A
:101D900046D009E000023000000C01400010014074
:101DA00000080140D82D0008109850B905F10F0027
:101DB00083B2E01DC2B229462046CDE90045FFF7B7
:101DC0008EFE109801280DD104F10F00C0B2CDE9AC
:101DD0000005E81D83B204F10F00C2B22946204677
:101DE000FFF77DFE002718E0002610E098F80000BD
:101DF000C6F1070201219140084018B10598FFF78C
:101E000055FE02E05846FFF751FE701CC6B2082E80
:101E1000ECDB08F10108781CC7B2102FE4DB34E0DA
:101E2000A14600272FE0002627E02B462246294620
:101E30002046CDE90045FFF752FE98F80000C6F1B4
:101E4000070201219140084060B10598FFF72EFE7E
:101E5000601CC4B2A4EB090008280CD14C46681CD5
:101E600085B208E0601CC4B2A4EB0900082802D1C6
:101E70004C46681C85B2701CC6B2082ED5DB08F132
:101E80000108781CC7B2102FCDDB06B0BDE8F08F7B
:101E90002DE9FC4306460F4614469846DDF824908B
:101EA000002510E0207880280DDA0020CDE9009090
:101EB000227806EBC501C8B243463946FFF758FF02
:101EC000681CC5B2641C20780028EBD1BDE8FC83F7
:101ED00008B501210420FEF797FF0220ADF80000AD
:101EE00010208DF8030003208DF8020069460B488E
:101EF000FEF7CEFC02210948FEF777FD08BD10B5BC
:101F00000446012C04D102210448FEF770FD03E0D1
:101F100002210248FEF769FD10BD000000080140E3
:101F200040EA01039B0703D009E008C9121F08C05B
:101F3000042AFAD203E011F8013B00F8013B521EDB
:101F4000F9D27047D2B201E000F8012B491EFBD252
:101F500070470022F6E710B513460A4604461946B4
:101F6000FFF7F0FF204610BD421C10F8011B0029AE
:101F7000FBD1801A704730B50B4601460020202265
:101F8000012409E021FA02F59D4205D303FA02F586
:101F9000491B04FA02F52844151EA2F10102F1DCE6
:101FA00030BD2DE9F05F0546002092469B468846ED
:101FB0000646814640241BE02846414647462246C5
:101FC00000F0F9F953465A46C01A914110D3114610
:101FD0001846224600F0E0F92D1A67EB01084F463B
:101FE00022460120002100F0D7F917EB00094E41ED
:101FF000201EA4F10104DFDC484631462A46434650
:10200000BDE8F09F2DE9FE4F804681EA0300C00F36
:102010000C46009021F0004123F00045B8EB02008F
:10202000A94105D24046214690461C460B46024631
:1020300023F00040104347D0270DC7F30A00C3F335
:102040000A510290401A019040286BDAC3F3130042
:1020500040F4801B0098924620B10023D2EB030A83
:1020600063EB0B0B01985946C0F14002504600F05B
:1020700093F906460D4650465946019A00F0ABF9D1
:1020800010EB08006141002487EA115284EAE773EB
:102090001A4340D0009A62B3019A012A4FEA0752CC
:1020A00015DC001B61EB02014FF0004202EA07520F
:1020B000CDE90042001C41F5801132462B4600F06C
:1020C000ABF903B0BDE8F08F40462146F9E7001BAD
:1020D00061EB0201001C41F5801300185B412018E0
:1020E000A2F5001747EB030140EAD570B6196D4120
:1020F00011E06D084FEA360645EAC0754FEA07520F
:10210000001B61EB0201001C41F5801149084FEAF8
:1021100030000019514132462B4603B0BDE8F04F64
:1021200000F06BB90098012240000023D0EB0202BE
:1021300063EBE073009821464FEAE074B8EB0000CF
:1021400061EB0401E9E783F000435BE781F00041C4
:1021500058E72DE9FE4F81EA030404F0004421F022
:10216000004100944FF0000B23F0004350EA0104BB
:102170005ED052EA03045BD0C3F30A54C1F30A559C
:102180002C44A4F2F3340194A0FB0254C1F31301D4
:1021900041F48011C3F3130343F4801301FB0244A1
:1021A00000FB034E840A970A44EA815447EA8357A6
:1021B000A4FB076802958D0A05FB07854FEA932C5F
:1021C00004FB0C542705029D4FEA065847EA1637D0
:1021D000B5EB08056EEB070C870E920E47EA8117E8
:1021E00042EA8312A7FB0201B6EB0B0164EB000489
:1021F0002B0D43EA0C335E1844EB1C50DA46514673
:10220000E7FB0201C5F313044FEA0B3343EA14530F
:102210004FEA0432019C43EA0603A4F10C04029441
:10222000009CCDE900B400F0F7F803B0BDE8F08FF2
:1022300000200146F9E72DE9F04D81EA030404F09E
:10224000004B21F0004514464FF0000A23F00041F6
:1022500050EA050220D054EA01021DD0C5F30A5706
:102260000246C5F31303C1F31300C1F30A5640F449
:10227000801543F48013A7EB0608101BD64608F21E
:10228000FD3873EB050002D308F1010801E0921854
:102290005B41B8F1000F03DA00200146BDE8F08D84
:1022A00000204FF48011064684460EE0171B73EBA6
:1022B000050705D3121B63EB050306434CEA010C2B
:1022C00049084FEA300092185B4150EA0107EDD10E
:1022D00052EA030012D082EA040083EA05010843AF
:1022E00005D0101BAB4106D20122002306E00022DC
:1022F0004FF0004302E06FF0010253101AEB0600AA
:102300004CEB085110EB0A0041EB0B01BDE8F04D1E
:1023100000F073B8C1F30A52C1F3130140F2FF3366
:1023200041F480119A4202DA00200146704740F2DF
:1023300033439A42A2F2334202DC524200F03BB8ED
:1023400000F02AB830B5041E71F1000404DB4FF030
:102350000044404264EB0101141E73F1000405DBEC
:102360001C464FF00043524263EB0403994208BFFE
:10237000904230BD064C074D06E0E06840F0010396
:1023800094E8070098471034AC42F6D3FDF7B2FE4C
:10239000E833000808340008202A04DB203A00FA59
:1023A00002F1002070479140C2F1200320FA03F3AC
:1023B000194390407047202A04DB203A21FA02F0AA
:1023C0000021704721FA02F3D040C2F1200291406F
:1023D000084319467047202A06DBCB17203A41FAFA
:1023E00002F043EAE07306E041FA02F3D040C2F1A2
:1023F0002002914008431946704710B5141E73F12E
:10240000000408DA401C41F1000192185B411A43B4
:1024100001D120F0010010BD2DE9F04D92469B4600
:1024200011B1B1FA81F202E0B0FA80F220329046A6
:10243000FFF7B2FF04460F4640EA0A0041EA0B01EB
:1024400053465A46084313D0114653EA010019D0A7
:10245000C8F140025046FFF7AEFF05460E46504613
:1024600059464246FFF798FF084305D0012004E093
:1024700020463946BDE8F08D0020054346EAE07667
:102480002C4337430A986305E40AA0EB08000022B6
:10249000FD0A44EA47540A3002D500200146E9E724
:1024A000010510196941DDE9084500196941BDE8D8
:1024B000F04DA2E70FB4054B10B503A9044A0298EA
:1024C00000F0EEF810BC5DF814FB000005040008F5
:1024D0004C0000200FB4084B10B504A902AA0398C1
:1024E00000F0DEF8044602A9002000F070FC20464F
:1024F00010BC5DF814FB0000CF2D000802E008C8F6
:10250000121F08C1002AFAD170477047002001E06D
:1025100001C1121F002AFBD1704700002DE9FF5FA7
:1025200082B00021DDE90430020DDDF840B0034344
:1025300018D044F61050A2F2FF32424315141198FD
:1025400001281FD0A5EB0B00401C5FEA000A4FF0EA
:1025500000064E4FDFF83891B046504615D5CAF107
:10256000000413E0119801244AA3012801D16FEA65
:102570000B010298119AC0E90031C0E9024206B08D
:10258000BDE8F09FCBF10000DFE704460021404AA0
:10259000491842EB0450CDE9001012E0E00707D0E3
:1025A00032463B4640464946FFF7D3FD80468946C2
:1025B00032463B4610461946FFF7CBFD06460F460E
:1025C0006410002CEAD1DDE90401DDE90023BAF151
:1025D000000F06DAFFF7BDFD42464B46FFF7B9FD97
:1025E00005E0FFF728FE42464B46FFF724FE04466F
:1025F0000E460022284BFFF7A5FE03D84FF0FF3010
:10260000014607E00022254B20463146FFF7FAFC41
:10261000FFF780FE102409E0002C0ADB0A220023C9
:10262000FFF7BFFC039B30321A55641E50EA0102CB
:10263000F2D1641C039AC4F111031444119A012AC3
:1026400003D0012208430DD10AE0084304D0002042
:102650004FF0110B119072E7A3EB0B056D1E0DE00F
:102660005B4504DD4FF0000205F1010504E003DAEB
:102670004FF00002A5F10105002AECD00298119953
:10268000C0E90231C0E9004579E7000000001440CC
:102690000000F03F300000000000F0430000E03F89
:1026A0002DE9FF4F95B09B468946064600250FE26F
:1026B000252877D100242746F84A0121059400E017
:1026C000044316F8013F203B01FA03F01042F7D112
:1026D00030782A2811D06FF02F033078A0F1300223
:1026E000092A16D8059A44F0020402EB820203EB91
:1026F00042021044761C0590EFE759F8042B05922E
:10270000002A03DA504244F40054059044F00204D5
:10271000761C30782E2816D116F8010F44F00404E8
:102720002A280DD06FF02F023078A0F13003092B4A
:1027300009D807EB870302EB4303C718761CF3E7BE
:1027400059F8047B761C30786C280FD006DC4C28B6
:1027500017D068280DD06A2814D104E0742810D04E
:102760007A280FD10DE044F400140AE044F48014F8
:1027700001E044F440147278824202D104F58014DE
:10278000761C761C307866280BD013DC582877D05E
:1027900009DC002875D04528F6D04628F4D0472813
:1027A0001AD19DE118E0632835D0642879D06528D6
:1027B00012D195E1702873D008DC6728F1D0692820
:1027C0006FD06E280DD06F2806D1B5E073282CD0BD
:1027D000752875D0782874D05A46179990476D1C83
:1027E00075E1C4F30250022809D003280DD0D9F8AE
:1027F000001004280DD00D6009F1040967E1D9F833
:102800000010EA17C1E90052F6E7D9F800100D8070
:10281000F2E70D70F0E719F8041B8DF800100020A6
:102820008DF80100EA46012003E059F804AB4FF0AF
:10283000FF3061074FF0000102D40DE008F1010103
:102840008846B9420FDA8045F8DB1AF808100029EB
:10285000F4D108E008F1010188468142FADB1AF858
:1028600008100029F6D105985B46A0EB0807214621
:102870003846179A00F094FA284400EB080507E060
:102880004DE029E10DE01AF8010B5A4617999047DF
:10289000B8F10108F7D25B4621463846179A13E192
:1028A00042E00A220092C4F302524FF0000A022AC8
:1028B00008D059F804CB032A4FEAEC710AD00DE096
:1028C00029E02AE009F1070121F00702F2E802C13C
:1028D000914609E00FFA8CFC4FEAEC71042A03D10F
:1028E0004FFA8CFC4FEAEC71002907DA0A46002106
:1028F000DCF1000C61EB02012D2202E0220504D57F
:102900002B228DF80420012203E0E20701D02022CF
:10291000F7E7904659E00A2102E010220DE010216D
:102920004FF0000A00910BE010224FF0000A44F033
:1029300004040827009203E008224FF0000A0092E6
:10294000C4F30252022A05D059F804CB0021032A0D
:1029500008D009E009F1070121F00702F2E802C1FD
:10296000914605E01FFA8CFC042A01D10CF0FF0C03
:102970004FF00008220728D5702806D0009B83F06E
:10298000100353EA0A0305D00EE040228DF804201C
:10299000012208E05CEA010206D030228DF8042012
:1029A0008DF8050002229046009B83F0080353EA4D
:1029B0000A030AD15CEA010201D1620705D530227F
:1029C0008DF804204FF001087F1E582804D034A051
:1029D00003900EA802900DE036A0F9E7534660463A
:1029E000009AFFF7DEFA84460398825C0298401E44
:1029F000029002705CEA0100F0D1029806A9081A60
:102A000000F1200A600702D524F4803400E0012799
:102A1000574502DDA7EB0A0000E0002000EB0A01A9
:102A2000009005984144401A0590E00306D45B46A7
:102A30002146179A059800F0B3F90544002706E0EF
:102A400001A85A46C05D179990476D1C7F1C4745E9
:102A5000F6DBE0030CD55B462146179A059800F09B
:102A60009FF9054404E030205A46179990476D1CA1
:102A70000099481E00900029F5DC08E002980299B0
:102A80005A460078491C0291179990476D1CBAF17B
:102A90000001AAF1010AF1DC65E10000092801004A
:102AA00030313233343536373839616263646566C4
:102AB0000000000030313233343536373839414286
:102AC000434445460000000000F058F90544761CD8
:102AD000307800287FF4ECAD19B02846BDE8F08FBF
:102AE000620700D4062709F1070222F0070CFCE870
:102AF0000223E14603F000485FEA080C02D00FF21F
:102B0000702C0DE05FEA045C02D50FF2682C07E040
:102B10005FEAC47C02D00FF2602C01E0AFF2700CCF
:102B20004FF0FF3823F00043CDF850C065280CD09B
:102B300006DC452809D046281DD047283DD13DE078
:102B4000662818D067287ED138E00021112F01DBDC
:102B5000112000E0781CCDE9000106A90EA8FFF7BE
:102B6000DDFCDDE90F010E9A03910021009207F1CF
:102B7000010A04914DE04FF000400097CDE90110AB
:102B800006A90EA8FFF7CAFCDDE90F0203920E9B0F
:102B900011990022DDF80CA00093049211B9791C60
:102BA00000EB010AB7EB0A0004D4C0F1FF3007F1D3
:102BB000010A0490AAEB0700019044E0012F00DA1B
:102BC00001270021112F01DD112000E03846CDE959
:102BD000000106A90EA8FFF7A1FCDDE90F010E9A7E
:102BE0000391002104910092BA4621070CD4039965
:102BF000514500DA8A46BAF1010F05DD009AAAF1C3
:102C00000101515C302908D0B84202DA10F1040FFA
:102C100006DA0121CDE9011015E0AAF10101E9E789
:102C2000002805DC049901440491AAEB000102E0AC
:102C3000411C514500DD8A460499401A401C019010
:102C40004FF000400290200704D40198504501DB6A
:102C5000CDF8048000208DF84F0002980DF14F0749
:102C6000B0F1004F25D02B200E9002984FF00208B3
:102C700000280CDA404202902D200E9007E00A2135
:102C80000298FFF778F93031029007F8011DB8F18A
:102C90000001A8F10108F2DC02980028EFD1791EAA
:102CA0000E980870307800F0200040F0450007F8DA
:102CB000020D12A8C01B00F107081498007800B19B
:102CC000012000EB0A01019801EBE07105984144F5
:102CD000401A401E0590E00306D45B462146179A31
:102CE000059800F05DF805441498007818B15A462C
:102CF000179990476D1CE00324D55B462146179A2F
:102D0000059800F04DF805441CE00498002807DB06
:102D1000DDE90301884203DD0098405C179901E07A
:102D2000179930205A469047049805F10105401C38
:102D300004900198401E019004D12E205A46179904
:102D400090476D1CBAF10001AAF1010ADDDC05E033
:102D500017F8010B5A46179990476D1CB8F10001FE
:102D6000A8F10108F4DC5B462146179A0598ABE60A
:102D70002D0000002B000000200000002DE9F04194
:102D8000044600251E461746880404D405E039464B
:102D90002020B0476D1C641EF9D52846BDE8F0819F
:102DA0002DE9F041044600251E469046C80301D592
:102DB000302700E02027880404D505E04146384646
:102DC000B0476D1C641EF9D52846BDE8F0810A683D
:102DD000531C0B60107070470000000000000000E2
:102DE0000000000000000000000000101010101093
:102DF00010100000181800000012362448000000CF
:102E00000000000000000000000000242424FE4810
:102E10004848FE48484800000000103854545030DC
:102E2000181414545438101000000044A4A8A8A882
:102E3000541A2A2A2A44000000000030484848500A
:102E40006EA494888976000000606020C0000000B5
:102E5000000000000000000000020408081010102C
:102E60001010100808040200004020101008080884
:102E70000808081010204000000000001010D6388C
:102E800038D61010000000000000000010101010D4
:102E9000FE101010100000000000000000000000F4
:102EA00000000000606020C0000000000000000082
:102EB0007F00000000000000000000000000000093
:102EC000000000006060000000000102020404082D
:102ED0000810102020404000000000182442424208
:102EE00042424242241800000000001070101010EE
:102EF00010101010107C00000000003C4242420400
:102F000004081020427E00000000003C42420418E9
:102F10000402024244380000000000040C1424247F
:102F200044447E04041E00000000007E40404058DF
:102F300064020242443800000000001C2440405853
:102F400064424242241800000000007E4444080805
:102F500010101010101000000000003C42424224EB
:102F600018244242423C0000000000182442424221
:102F7000261A020224380000000000000000181881
:102F80000000000018180000000000000000001001
:102F900000000000001010200000000204081020B3
:102FA0004020100804020000000000000000FE00A5
:102FB0000000FE0000000000000000402010080497
:102FC00002040810204000000000003C424262025F
:102FD000040808001818000000000038445AAAAA83
:102FE000AAAAB44244380000000000101018282893
:102FF000243C444242E70000000000F84444447886
:103000004442424244F800000000003E42428080B8
:103010008080804244380000000000F84442424270
:103020004242424244F80000000000FC4248487816
:103030004848404242FC0000000000FC42484878FA
:103040004848404040E000000000003C444480808C
:10305000808E844444380000000000E7424242422F
:103060007E42424242E700000000007C1010101037
:1030700010101010107C00000000003E0808080826
:1030800008080808080888F0000000EE444850705E
:103090005048484444EE0000000000E040404040FA
:1030A0004040404042FE0000000000EE6C6C6C6C42
:1030B0005454545454D60000000000C76262525267
:1030C0004A4A4A4646E200000000003844828282B2
:1030D0008282828244380000000000FC4242424268
:1030E0007C40404040E00000000000384482828282
:1030F0008282B2CA4C380600000000FC4242427C88
:103100004848444442E300000000003E4242402060
:1031100018040242427C0000000000FE92101010D1
:103120001010101010380000000000E74242424228
:1031300042424242423C0000000000E74242442436
:103140002428281810100000000000D692929292B5
:10315000AAAA6C4444440000000000E7422424185A
:103160001818242442E70000000000EE44442828F8
:1031700010101010103800000000007E84040808B1
:103180001020204242FC0000001E101010101010F1
:103190001010101010101E000000404020201010D1
:1031A0001008080404040202007808080808080847
:1031B0000808080808087800001C22000000000029
:1031C00000000000000000000000000000000000FF
:1031D00000000000000000FF00606020C000000050
:1031E0000000000000000000000000000000003CA3
:1031F000421E2242423F0000000000C040404058B2
:103200006442424264580000000000000000001CBC
:1032100022404040221C0000000000060202021E64
:1032200022424242261B0000000000000000003C39
:10323000427E4040423C00000000000F1110107E12
:1032400010101010107C0000000000000000003E74
:10325000444438403C42423C000000C04040405C96
:103260006242424242E7000000000030300000703D
:1032700010101010107C00000000000C0C00001C4E
:103280000404040404044478000000C04040404E9C
:103290004850684844EE0000000000701010101004
:1032A00010101010107C000000000000000000FE54
:1032B0004949494949ED000000000000000000DCD8
:1032C0006242424242E70000000000000000003C71
:1032D00042424242423C000000000000000000D890
:1032E00064424242447840E0000000000000001EBA
:1032F00022424242221E020700000000000000EEAF
:103300003220202020F80000000000000000003ED5
:1033100042403C02427C0000000000000010107C93
:1033200010101010100C000000000000000000C67B
:1033300042424242463B000000000000000000E71D
:10334000422424281010000000000000000000D7D4
:103350009292AAAA44440000000000000000006EFF
:10336000241818182476000000000000000000E770
:1033700042242428181010E0000000000000007E05
:1033800044081010227E0000000304040404040812
:1033900004040404040403000808080808080808D2
:1033A0000808080808080808006010101010100825
:1033B0001010101010106000304C4300000000008E
:1033C0000000000000000000000000101018383855
:1033D0003C3C7C7E7EFF0000000000FF7E7E7C3C4B
:1033E0003C38381810100000083400080000002095
:1033F00050000000FC240008583400085000002051
:10340000201C00000C2500080000000000A24A0457
:103410000000000000000000010203040607080984
:10342000000000000000000000000000000000009C
:10343000000000000400000000000108000000007F
:103440000102030401020304060708090204060836
:08345000000000000000000074
:04000005080000ED02
:00000001FF
